{
  "_format": "hh-sol-artifact-1",
  "contractName": "WavePortal",
  "sourceName": "contracts/WavePortal.sol",
  "abi": [
    {
      "inputs": [],
      "stateMutability": "payable",
      "type": "constructor"
    },
    {
      "anonymous": false,
      "inputs": [
        {
          "indexed": true,
          "internalType": "address",
          "name": "from",
          "type": "address"
        },
        {
          "indexed": false,
          "internalType": "uint256",
          "name": "timestamp",
          "type": "uint256"
        },
        {
          "indexed": false,
          "internalType": "string",
          "name": "message",
          "type": "string"
        }
      ],
      "name": "NewWave",
      "type": "event"
    },
    {
      "inputs": [],
      "name": "getAllWaves",
      "outputs": [
        {
          "components": [
            {
              "internalType": "address",
              "name": "waver",
              "type": "address"
            },
            {
              "internalType": "string",
              "name": "message",
              "type": "string"
            },
            {
              "internalType": "uint256",
              "name": "eth",
              "type": "uint256"
            },
            {
              "internalType": "uint256",
              "name": "timestamp",
              "type": "uint256"
            }
          ],
          "internalType": "struct WavePortal.Wave[]",
          "name": "",
          "type": "tuple[]"
        }
      ],
      "stateMutability": "view",
      "type": "function"
    },
    {
      "inputs": [],
      "name": "getTotalWaves",
      "outputs": [
        {
          "internalType": "uint256",
          "name": "",
          "type": "uint256"
        }
      ],
      "stateMutability": "view",
      "type": "function"
    },
    {
      "inputs": [
        {
          "internalType": "uint256",
          "name": "n",
          "type": "uint256"
        }
      ],
      "name": "isPrime",
      "outputs": [
        {
          "internalType": "bool",
          "name": "",
          "type": "bool"
        }
      ],
      "stateMutability": "pure",
      "type": "function"
    },
    {
      "inputs": [
        {
          "internalType": "address",
          "name": "",
          "type": "address"
        }
      ],
      "name": "lastWavedAt",
      "outputs": [
        {
          "internalType": "uint256",
          "name": "",
          "type": "uint256"
        }
      ],
      "stateMutability": "view",
      "type": "function"
    },
    {
      "inputs": [
        {
          "internalType": "uint256",
          "name": "x",
          "type": "uint256"
        }
      ],
      "name": "sqrt",
      "outputs": [
        {
          "internalType": "uint256",
          "name": "",
          "type": "uint256"
        }
      ],
      "stateMutability": "pure",
      "type": "function"
    },
    {
      "inputs": [
        {
          "internalType": "string",
          "name": "_message",
          "type": "string"
        }
      ],
      "name": "wave",
      "outputs": [],
      "stateMutability": "nonpayable",
      "type": "function"
    }
  ],
  "bytecode": "0x60806040526200004f6040518060400160405280601981526020017f57652068617665206265656e20636f6e737472756374656421000000000000008152506200007f60201b620008c91760201c565b606444426200005f9190620001cc565b6200006b919062000269565b600181905550600160008190555062000310565b6200011f816040516024016200009691906200018c565b6040516020818303038152906040527f41304fac000000000000000000000000000000000000000000000000000000007bffffffffffffffffffffffffffffffffffffffffffffffffffffffff19166020820180517bffffffffffffffffffffffffffffffffffffffffffffffffffffffff83818316178352505050506200012260201b60201c565b50565b60008151905060006a636f6e736f6c652e6c6f679050602083016000808483855afa5050505050565b60006200015882620001b0565b620001648185620001bb565b93506200017681856020860162000233565b6200018181620002ff565b840191505092915050565b60006020820190508181036000830152620001a881846200014b565b905092915050565b600081519050919050565b600082825260208201905092915050565b6000620001d98262000229565b9150620001e68362000229565b9250827fffffffffffffffffffffffffffffffffffffffffffffffffffffffffffffffff038211156200021e576200021d620002a1565b5b828201905092915050565b6000819050919050565b60005b838110156200025357808201518184015260208101905062000236565b8381111562000263576000848401525b50505050565b6000620002768262000229565b9150620002838362000229565b925082620002965762000295620002d0565b5b828206905092915050565b7f4e487b7100000000000000000000000000000000000000000000000000000000600052601160045260246000fd5b7f4e487b7100000000000000000000000000000000000000000000000000000000600052601260045260246000fd5b6000601f19601f8301169050919050565b6113da80620003206000396000f3fe608060405234801561001057600080fd5b50600436106100625760003560e01c80634270349414610067578063449d46c014610097578063677342ce146100b35780639a2cdc08146100e3578063a42a466314610101578063bd43a90814610131575b600080fd5b610081600480360381019061007c9190610bc6565b61014f565b60405161008e9190610e5b565b60405180910390f35b6100b160048036038101906100ac9190610b85565b6101ec565b005b6100cd60048036038101906100c89190610bc6565b6106ea565b6040516100da9190610f28565b60405180910390f35b6100eb61074d565b6040516100f89190610f28565b60405180910390f35b61011b60048036038101906101169190610b5c565b610756565b6040516101289190610f28565b60405180910390f35b61013961076e565b6040516101469190610e39565b60405180910390f35b60006001821161016257600090506101e7565b816002141561017457600190506101e7565b60028261018191906111ae565b6000141561019257600090506101e7565b600061019d836106ea565b90506000600390505b8181116101e05780846101b991906111ae565b600014156101cc576000925050506101e7565b6002816101d9919061103a565b90506101a6565b5060019150505b919050565b4260038060003373ffffffffffffffffffffffffffffffffffffffff1673ffffffffffffffffffffffffffffffffffffffff16815260200190815260200160002054610238919061103a565b10610278576040517f08c379a000000000000000000000000000000000000000000000000000000000815260040161026f90610f08565b60405180910390fd5b42600360003373ffffffffffffffffffffffffffffffffffffffff1673ffffffffffffffffffffffffffffffffffffffff1681526020019081526020016000208190555060016000808282546102ce919061103a565b925050819055506103146040518060400160405280600d81526020017f257320686173207761766564210000000000000000000000000000000000000081525033610962565b60646001544244610325919061103a565b61032f919061103a565b61033991906111ae565b600181905550605060015411158015610359575061035860005461014f565b5b1561057b5761039d6040518060400160405280600781526020017f257320776f6e210000000000000000000000000000000000000000000000000081525033610962565b600066017741ec6f30009050600260405180608001604052803373ffffffffffffffffffffffffffffffffffffffff16815260200184815260200183815260200142815250908060018154018082558091505060019003906000526020600020906004020160009091909190915060008201518160000160006101000a81548173ffffffffffffffffffffffffffffffffffffffff021916908373ffffffffffffffffffffffffffffffffffffffff160217905550602082015181600101908051906020019061046e929190610a27565b5060408201518160020155606082015181600301555050478111156104c8576040517f08c379a00000000000000000000000000000000000000000000000000000000081526004016104bf90610ee8565b60405180910390fd5b60003373ffffffffffffffffffffffffffffffffffffffff16826040516104ee90610e24565b60006040518083038185875af1925050503d806000811461052b576040519150601f19603f3d011682016040523d82523d6000602084013e610530565b606091505b5050905080610574576040517f08c379a000000000000000000000000000000000000000000000000000000000815260040161056b90610ec8565b60405180910390fd5b5050610697565b6105b96040518060400160405280600581526020017f6c6f7365210000000000000000000000000000000000000000000000000000008152506108c9565b600260405180608001604052803373ffffffffffffffffffffffffffffffffffffffff1681526020018381526020016000815260200142815250908060018154018082558091505060019003906000526020600020906004020160009091909190915060008201518160000160006101000a81548173ffffffffffffffffffffffffffffffffffffffff021916908373ffffffffffffffffffffffffffffffffffffffff160217905550602082015181600101908051906020019061067f929190610a27565b50604082015181600201556060820151816003015550505b3373ffffffffffffffffffffffffffffffffffffffff167f5f7e16dc676677766a70e9c5628aa6c54ddb8b6e5188e2ae1e1f17f1ffbea71642836040516106df929190610f43565b60405180910390a250565b60008060026001846106fc919061103a565b6107069190611090565b905060008390505b808210156107435781905060028283866107289190611090565b610732919061103a565b61073c9190611090565b915061070e565b8092505050919050565b60008054905090565b60036020528060005260406000206000915090505481565b60606002805480602002602001604051908101604052809291908181526020016000905b828210156108c057838290600052602060002090600402016040518060800160405290816000820160009054906101000a900473ffffffffffffffffffffffffffffffffffffffff1673ffffffffffffffffffffffffffffffffffffffff1673ffffffffffffffffffffffffffffffffffffffff16815260200160018201805461081b9061114b565b80601f01602080910402602001604051908101604052809291908181526020018280546108479061114b565b80156108945780601f1061086957610100808354040283529160200191610894565b820191906000526020600020905b81548152906001019060200180831161087757829003601f168201915b505050505081526020016002820154815260200160038201548152505081526020019060010190610792565b50505050905090565b61095f816040516024016108dd9190610e76565b6040516020818303038152906040527f41304fac000000000000000000000000000000000000000000000000000000007bffffffffffffffffffffffffffffffffffffffffffffffffffffffff19166020820180517bffffffffffffffffffffffffffffffffffffffffffffffffffffffff83818316178352505050506109fe565b50565b6109fa8282604051602401610978929190610e98565b6040516020818303038152906040527f319af333000000000000000000000000000000000000000000000000000000007bffffffffffffffffffffffffffffffffffffffffffffffffffffffff19166020820180517bffffffffffffffffffffffffffffffffffffffffffffffffffffffff83818316178352505050506109fe565b5050565b60008151905060006a636f6e736f6c652e6c6f679050602083016000808483855afa5050505050565b828054610a339061114b565b90600052602060002090601f016020900481019282610a555760008555610a9c565b82601f10610a6e57805160ff1916838001178555610a9c565b82800160010185558215610a9c579182015b82811115610a9b578251825591602001919060010190610a80565b5b509050610aa99190610aad565b5090565b5b80821115610ac6576000816000905550600101610aae565b5090565b6000610add610ad884610f98565b610f73565b905082815260208101848484011115610af557600080fd5b610b00848285611109565b509392505050565b600081359050610b1781611376565b92915050565b600082601f830112610b2e57600080fd5b8135610b3e848260208601610aca565b91505092915050565b600081359050610b568161138d565b92915050565b600060208284031215610b6e57600080fd5b6000610b7c84828501610b08565b91505092915050565b600060208284031215610b9757600080fd5b600082013567ffffffffffffffff811115610bb157600080fd5b610bbd84828501610b1d565b91505092915050565b600060208284031215610bd857600080fd5b6000610be684828501610b47565b91505092915050565b6000610bfb8383610da3565b905092915050565b610c0c816110c1565b82525050565b610c1b816110c1565b82525050565b6000610c2c82610fd9565b610c368185610ffc565b935083602082028501610c4885610fc9565b8060005b85811015610c845784840389528151610c658582610bef565b9450610c7083610fef565b925060208a01995050600181019050610c4c565b50829750879550505050505092915050565b610c9f816110d3565b82525050565b6000610cb082610fe4565b610cba8185611018565b9350610cca818560208601611118565b610cd38161129b565b840191505092915050565b6000610ce982610fe4565b610cf38185611029565b9350610d03818560208601611118565b610d0c8161129b565b840191505092915050565b6000610d24602783611029565b9150610d2f826112ac565b604082019050919050565b6000610d47603583611029565b9150610d52826112fb565b604082019050919050565b6000610d6a60008361100d565b9150610d758261134a565b600082019050919050565b6000610d8d600f83611029565b9150610d988261134d565b602082019050919050565b6000608083016000830151610dbb6000860182610c03565b5060208301518482036020860152610dd38282610ca5565b9150506040830151610de86040860182610e06565b506060830151610dfb6060860182610e06565b508091505092915050565b610e0f816110ff565b82525050565b610e1e816110ff565b82525050565b6000610e2f82610d5d565b9150819050919050565b60006020820190508181036000830152610e538184610c21565b905092915050565b6000602082019050610e706000830184610c96565b92915050565b60006020820190508181036000830152610e908184610cde565b905092915050565b60006040820190508181036000830152610eb28185610cde565b9050610ec16020830184610c12565b9392505050565b60006020820190508181036000830152610ee181610d17565b9050919050565b60006020820190508181036000830152610f0181610d3a565b9050919050565b60006020820190508181036000830152610f2181610d80565b9050919050565b6000602082019050610f3d6000830184610e15565b92915050565b6000604082019050610f586000830185610e15565b8181036020830152610f6a8184610cde565b90509392505050565b6000610f7d610f8e565b9050610f89828261117d565b919050565b6000604051905090565b600067ffffffffffffffff821115610fb357610fb261126c565b5b610fbc8261129b565b9050602081019050919050565b6000819050602082019050919050565b600081519050919050565b600081519050919050565b6000602082019050919050565b600082825260208201905092915050565b600081905092915050565b600082825260208201905092915050565b600082825260208201905092915050565b6000611045826110ff565b9150611050836110ff565b9250827fffffffffffffffffffffffffffffffffffffffffffffffffffffffffffffffff03821115611085576110846111df565b5b828201905092915050565b600061109b826110ff565b91506110a6836110ff565b9250826110b6576110b561120e565b5b828204905092915050565b60006110cc826110df565b9050919050565b60008115159050919050565b600073ffffffffffffffffffffffffffffffffffffffff82169050919050565b6000819050919050565b82818337600083830152505050565b60005b8381101561113657808201518184015260208101905061111b565b83811115611145576000848401525b50505050565b6000600282049050600182168061116357607f821691505b602082108114156111775761117661123d565b5b50919050565b6111868261129b565b810181811067ffffffffffffffff821117156111a5576111a461126c565b5b80604052505050565b60006111b9826110ff565b91506111c4836110ff565b9250826111d4576111d361120e565b5b828206905092915050565b7f4e487b7100000000000000000000000000000000000000000000000000000000600052601160045260246000fd5b7f4e487b7100000000000000000000000000000000000000000000000000000000600052601260045260246000fd5b7f4e487b7100000000000000000000000000000000000000000000000000000000600052602260045260246000fd5b7f4e487b7100000000000000000000000000000000000000000000000000000000600052604160045260246000fd5b6000601f19601f8301169050919050565b7f4661696c656420746f207769746864726177206d6f6e65792066726f6d20636f60008201527f6e74726163742e00000000000000000000000000000000000000000000000000602082015250565b7f547279696e6720746f207769746864726177206d6f7265206d6f6e657920746860008201527f616e207468657920636f6e7472616374206861732e0000000000000000000000602082015250565b50565b7f57616974203320736563636f6e64730000000000000000000000000000000000600082015250565b61137f816110c1565b811461138a57600080fd5b50565b611396816110ff565b81146113a157600080fd5b5056fea264697066735822122003f1a49c9d680a89074f96eaa14082629e13c2456a8366a2d0423d9467c0b0b164736f6c63430008040033",
  "linkReferences": {},
  "deployedLinkReferences": {}
}